{
  "contractName": "Advertising",
  "abi": [
    {
      "inputs": [],
      "stateMutability": "nonpayable",
      "type": "constructor"
    },
    {
      "anonymous": false,
      "inputs": [
        {
          "indexed": false,
          "internalType": "address",
          "name": "addr",
          "type": "address"
        },
        {
          "indexed": false,
          "internalType": "string",
          "name": "_title",
          "type": "string"
        },
        {
          "indexed": false,
          "internalType": "uint256",
          "name": "_pot",
          "type": "uint256"
        },
        {
          "indexed": false,
          "internalType": "uint256",
          "name": "_count",
          "type": "uint256"
        }
      ],
      "name": "AddAdv",
      "type": "event"
    },
    {
      "anonymous": false,
      "inputs": [
        {
          "indexed": false,
          "internalType": "address",
          "name": "addr",
          "type": "address"
        },
        {
          "indexed": false,
          "internalType": "uint256",
          "name": "_rwd",
          "type": "uint256"
        }
      ],
      "name": "IsCall",
      "type": "event"
    },
    {
      "inputs": [
        {
          "internalType": "string",
          "name": "_title",
          "type": "string"
        },
        {
          "internalType": "string",
          "name": "_comment",
          "type": "string"
        },
        {
          "internalType": "uint256",
          "name": "_pot",
          "type": "uint256"
        },
        {
          "internalType": "uint256",
          "name": "_count",
          "type": "uint256"
        }
      ],
      "name": "addAdv",
      "outputs": [
        {
          "internalType": "bool",
          "name": "res",
          "type": "bool"
        }
      ],
      "stateMutability": "payable",
      "type": "function",
      "payable": true
    },
    {
      "inputs": [],
      "name": "getMyAdv",
      "outputs": [
        {
          "components": [
            {
              "internalType": "string",
              "name": "title",
              "type": "string"
            },
            {
              "internalType": "string",
              "name": "comment",
              "type": "string"
            },
            {
              "internalType": "bool",
              "name": "flag",
              "type": "bool"
            },
            {
              "internalType": "uint256",
              "name": "pot",
              "type": "uint256"
            },
            {
              "internalType": "uint256",
              "name": "reward",
              "type": "uint256"
            }
          ],
          "internalType": "struct Advertising.AdvInfo[]",
          "name": "res",
          "type": "tuple[]"
        }
      ],
      "stateMutability": "view",
      "type": "function",
      "constant": true
    },
    {
      "inputs": [],
      "name": "getAllAdv",
      "outputs": [
        {
          "components": [
            {
              "internalType": "string",
              "name": "title",
              "type": "string"
            },
            {
              "internalType": "string",
              "name": "comment",
              "type": "string"
            },
            {
              "internalType": "bool",
              "name": "flag",
              "type": "bool"
            },
            {
              "internalType": "uint256",
              "name": "pot",
              "type": "uint256"
            },
            {
              "internalType": "uint256",
              "name": "reward",
              "type": "uint256"
            }
          ],
          "internalType": "struct Advertising.AdvInfo[]",
          "name": "",
          "type": "tuple[]"
        }
      ],
      "stateMutability": "view",
      "type": "function",
      "constant": true
    },
    {
      "inputs": [],
      "name": "getAllperson",
      "outputs": [
        {
          "internalType": "uint256",
          "name": "",
          "type": "uint256"
        }
      ],
      "stateMutability": "view",
      "type": "function",
      "constant": true
    },
    {
      "inputs": [
        {
          "internalType": "uint256",
          "name": "idx",
          "type": "uint256"
        }
      ],
      "name": "callReward",
      "outputs": [
        {
          "internalType": "string",
          "name": "",
          "type": "string"
        }
      ],
      "stateMutability": "nonpayable",
      "type": "function"
    }
  ],
  "bytecode": "0x608060405234801561001057600080fd5b50336000806101000a81548173ffffffffffffffffffffffffffffffffffffffff021916908373ffffffffffffffffffffffffffffffffffffffff160217905550611543806100606000396000f3fe60806040526004361061004a5760003560e01c806318b080661461004f57806329c7e1231461007a5780635a159ccb146100b7578063c45ea004146100e2578063ce44fefc1461010d575b600080fd5b34801561005b57600080fd5b5061006461013d565b6040516100719190610c1d565b60405180910390f35b34801561008657600080fd5b506100a1600480360381019061009c9190610c78565b610147565b6040516100ae9190610d3e565b60405180910390f35b3480156100c357600080fd5b506100cc6104c1565b6040516100d99190610f13565b60405180910390f35b3480156100ee57600080fd5b506100f76106b6565b6040516101049190610f13565b60405180910390f35b6101276004803603810190610122919061106a565b610868565b6040516101349190611118565b60405180910390f35b6000600254905090565b606060006003838154811061015f5761015e611133565b5b90600052602060002090600502016040518060a001604052908160008201805461018890611191565b80601f01602080910402602001604051908101604052809291908181526020018280546101b490611191565b80156102015780601f106101d657610100808354040283529160200191610201565b820191906000526020600020905b8154815290600101906020018083116101e457829003601f168201915b5050505050815260200160018201805461021a90611191565b80601f016020809104026020016040519081016040528092919081815260200182805461024690611191565b80156102935780601f1061026857610100808354040283529160200191610293565b820191906000526020600020905b81548152906001019060200180831161027657829003601f168201915b505050505081526020016002820160009054906101000a900460ff161515151581526020016003820154815260200160048201548152505090506000816080015190506000826060015190506000339050828210156103655760006003878154811061030257610301611133565b5b906000526020600020906005020160020160006101000a81548160ff0219169083151502179055506040517f08c379a000000000000000000000000000000000000000000000000000000000815260040161035c9061120e565b60405180910390fd5b60008173ffffffffffffffffffffffffffffffffffffffff168460405161038b9061125f565b60006040518083038185875af1925050503d80600081146103c8576040519150601f19603f3d011682016040523d82523d6000602084013e6103cd565b606091505b5050905080610411576040517f08c379a0000000000000000000000000000000000000000000000000000000008152600401610408906112c0565b60405180910390fd5b838361041d919061130f565b6003888154811061043157610430611133565b5b9060005260206000209060050201600301819055507fa49bbf4d1db016a5ace3ea9f002fc88ba77568f51b8a673fda791986ae76f5593385604051610477929190611384565b60405180910390a16040518060400160405280601081526020017f52657761726420436f6d706c657465640000000000000000000000000000000081525095505050505050919050565b60606000600460003373ffffffffffffffffffffffffffffffffffffffff1673ffffffffffffffffffffffffffffffffffffffff168152602001908152602001600020805480602002602001604051908101604052809291908181526020016000905b828210156106a957838290600052602060002090600502016040518060a001604052908160008201805461055790611191565b80601f016020809104026020016040519081016040528092919081815260200182805461058390611191565b80156105d05780601f106105a5576101008083540402835291602001916105d0565b820191906000526020600020905b8154815290600101906020018083116105b357829003601f168201915b505050505081526020016001820180546105e990611191565b80601f016020809104026020016040519081016040528092919081815260200182805461061590611191565b80156106625780601f1061063757610100808354040283529160200191610662565b820191906000526020600020905b81548152906001019060200180831161064557829003601f168201915b505050505081526020016002820160009054906101000a900460ff161515151581526020016003820154815260200160048201548152505081526020019060010190610524565b5050505090508091505090565b60606003805480602002602001604051908101604052809291908181526020016000905b8282101561085f57838290600052602060002090600502016040518060a001604052908160008201805461070d90611191565b80601f016020809104026020016040519081016040528092919081815260200182805461073990611191565b80156107865780601f1061075b57610100808354040283529160200191610786565b820191906000526020600020905b81548152906001019060200180831161076957829003601f168201915b5050505050815260200160018201805461079f90611191565b80601f01602080910402602001604051908101604052809291908181526020018280546107cb90611191565b80156108185780601f106107ed57610100808354040283529160200191610818565b820191906000526020600020905b8154815290600101906020018083116107fb57829003601f168201915b505050505081526020016002820160009054906101000a900460ff1615151515815260200160038201548152602001600482015481525050815260200190600101906106da565b50505050905090565b60008234116108ac576040517f08c379a00000000000000000000000000000000000000000000000000000000081526004016108a3906113f9565b60405180910390fd5b6108b4610b30565b8581600001819052508481602001819052508381606001818152505082846108dc9190611448565b81608001818152505060018160400190151590811515815250506000600460003373ffffffffffffffffffffffffffffffffffffffff1673ffffffffffffffffffffffffffffffffffffffff1681526020019081526020016000208054905003610959576002600081548092919061095390611479565b91905055505b600460003373ffffffffffffffffffffffffffffffffffffffff1673ffffffffffffffffffffffffffffffffffffffff16815260200190815260200160002081908060018154018082558091505060019003906000526020600020906005020160009091909190915060008201518160000190805190602001906109de929190610b61565b5060208201518160010190805190602001906109fb929190610b61565b5060408201518160020160006101000a81548160ff0219169083151502179055506060820151816003015560808201518160040155505060038190806001815401808255809150506001900390600052602060002090600502016000909190919091506000820151816000019080519060200190610a7a929190610b61565b506020820151816001019080519060200190610a97929190610b61565b5060408201518160020160006101000a81548160ff0219169083151502179055506060820151816003015560808201518160040155505060016000815480929190610ae190611479565b91905055507f9a6c4c9571938c63fb30748dc45cb487b57e717ccd9d2194ca1679b5e918c6e033878686604051610b1b94939291906114c1565b60405180910390a16001915050949350505050565b6040518060a00160405280606081526020016060815260200160001515815260200160008152602001600081525090565b828054610b6d90611191565b90600052602060002090601f016020900481019282610b8f5760008555610bd6565b82601f10610ba857805160ff1916838001178555610bd6565b82800160010185558215610bd6579182015b82811115610bd5578251825591602001919060010190610bba565b5b509050610be39190610be7565b5090565b5b80821115610c00576000816000905550600101610be8565b5090565b6000819050919050565b610c1781610c04565b82525050565b6000602082019050610c326000830184610c0e565b92915050565b6000604051905090565b600080fd5b600080fd5b610c5581610c04565b8114610c6057600080fd5b50565b600081359050610c7281610c4c565b92915050565b600060208284031215610c8e57610c8d610c42565b5b6000610c9c84828501610c63565b91505092915050565b600081519050919050565b600082825260208201905092915050565b60005b83811015610cdf578082015181840152602081019050610cc4565b83811115610cee576000848401525b50505050565b6000601f19601f8301169050919050565b6000610d1082610ca5565b610d1a8185610cb0565b9350610d2a818560208601610cc1565b610d3381610cf4565b840191505092915050565b60006020820190508181036000830152610d588184610d05565b905092915050565b600081519050919050565b600082825260208201905092915050565b6000819050602082019050919050565b600082825260208201905092915050565b6000610da882610ca5565b610db28185610d8c565b9350610dc2818560208601610cc1565b610dcb81610cf4565b840191505092915050565b60008115159050919050565b610deb81610dd6565b82525050565b610dfa81610c04565b82525050565b600060a0830160008301518482036000860152610e1d8282610d9d565b91505060208301518482036020860152610e378282610d9d565b9150506040830151610e4c6040860182610de2565b506060830151610e5f6060860182610df1565b506080830151610e726080860182610df1565b508091505092915050565b6000610e898383610e00565b905092915050565b6000602082019050919050565b6000610ea982610d60565b610eb38185610d6b565b935083602082028501610ec585610d7c565b8060005b85811015610f015784840389528151610ee28582610e7d565b9450610eed83610e91565b925060208a01995050600181019050610ec9565b50829750879550505050505092915050565b60006020820190508181036000830152610f2d8184610e9e565b905092915050565b600080fd5b600080fd5b7f4e487b7100000000000000000000000000000000000000000000000000000000600052604160045260246000fd5b610f7782610cf4565b810181811067ffffffffffffffff82111715610f9657610f95610f3f565b5b80604052505050565b6000610fa9610c38565b9050610fb58282610f6e565b919050565b600067ffffffffffffffff821115610fd557610fd4610f3f565b5b610fde82610cf4565b9050602081019050919050565b82818337600083830152505050565b600061100d61100884610fba565b610f9f565b90508281526020810184848401111561102957611028610f3a565b5b611034848285610feb565b509392505050565b600082601f83011261105157611050610f35565b5b8135611061848260208601610ffa565b91505092915050565b6000806000806080858703121561108457611083610c42565b5b600085013567ffffffffffffffff8111156110a2576110a1610c47565b5b6110ae8782880161103c565b945050602085013567ffffffffffffffff8111156110cf576110ce610c47565b5b6110db8782880161103c565b93505060406110ec87828801610c63565b92505060606110fd87828801610c63565b91505092959194509250565b61111281610dd6565b82525050565b600060208201905061112d6000830184611109565b92915050565b7f4e487b7100000000000000000000000000000000000000000000000000000000600052603260045260246000fd5b7f4e487b7100000000000000000000000000000000000000000000000000000000600052602260045260246000fd5b600060028204905060018216806111a957607f821691505b6020821081036111bc576111bb611162565b5b50919050565b7f45787069726564206164766572746973696e6700000000000000000000000000600082015250565b60006111f8601383610cb0565b9150611203826111c2565b602082019050919050565b60006020820190508181036000830152611227816111eb565b9050919050565b600081905092915050565b50565b600061124960008361122e565b915061125482611239565b600082019050919050565b600061126a8261123c565b9150819050919050565b7f4661696c20746f207472616e7366657220726577617264000000000000000000600082015250565b60006112aa601783610cb0565b91506112b582611274565b602082019050919050565b600060208201905081810360008301526112d98161129d565b9050919050565b7f4e487b7100000000000000000000000000000000000000000000000000000000600052601160045260246000fd5b600061131a82610c04565b915061132583610c04565b925082821015611338576113376112e0565b5b828203905092915050565b600073ffffffffffffffffffffffffffffffffffffffff82169050919050565b600061136e82611343565b9050919050565b61137e81611363565b82525050565b60006040820190506113996000830185611375565b6113a66020830184610c0e565b9392505050565b7f4e6f7420456e6f75676820455448000000000000000000000000000000000000600082015250565b60006113e3600e83610cb0565b91506113ee826113ad565b602082019050919050565b60006020820190508181036000830152611412816113d6565b9050919050565b7f4e487b7100000000000000000000000000000000000000000000000000000000600052601260045260246000fd5b600061145382610c04565b915061145e83610c04565b92508261146e5761146d611419565b5b828204905092915050565b600061148482610c04565b91507fffffffffffffffffffffffffffffffffffffffffffffffffffffffffffffffff82036114b6576114b56112e0565b5b600182019050919050565b60006080820190506114d66000830187611375565b81810360208301526114e88186610d05565b90506114f76040830185610c0e565b6115046060830184610c0e565b9594505050505056fea2646970667358221220dc4c21408e8567fa6ff9f164590a0df136e8b4d8ad480ffd9064183aadd9b87864736f6c634300080e0033",
  "immutableReferences": {},
  "source": "// SPDX-License-Identifier: MIT\r\npragma solidity >=0.4.22;\r\n\r\n//   ver1.0  \r\ncontract Advertising {\r\n    address payable private owner; //   \r\n\r\n    constructor() {\r\n        owner = payable(msg.sender);\r\n    }\r\n\r\n    //  \r\n    struct AdvInfo {\r\n        string title; //  \r\n        string comment; // \r\n        \r\n        bool flag; //   False\r\n        uint256 pot; // \r\n        uint256 reward; // 1    \r\n    }\r\n\r\n    //  \r\n    uint256 total_adv; //     \r\n    uint256 total_person; //   \r\n    AdvInfo[] AllAdv;\r\n\r\n    mapping(address => AdvInfo[]) private _advs; // 1    \r\n    mapping(uint256 => AdvInfo) private _adv_dict; //  \r\n    \r\n    // \r\n    event AddAdv(address addr, string _title, uint256 _pot, uint256 _count); //      \r\n    event IsCall(address addr, uint256 _rwd); //   \r\n\r\n    //  \r\n    function addAdv(string memory _title, string memory _comment, uint256 _pot, uint256 _count) public payable returns (bool res) {\r\n        require(msg.value > _pot, \"Not Enough ETH\"); //     \r\n\r\n        AdvInfo memory a;\r\n\r\n        a.title = _title;\r\n        a.comment = _comment;\r\n        a.pot = _pot;\r\n        a.reward = _pot / _count;\r\n        a.flag = true;\r\n\r\n        if (_advs[msg.sender].length == 0) //      \r\n        { \r\n            total_person++;\r\n        }\r\n\r\n        _advs[msg.sender].push(a);\r\n        AllAdv.push(a);\r\n        total_adv++;\r\n\r\n        emit AddAdv(msg.sender, _title, _pot, _count);\r\n\r\n        return true;\r\n    }\r\n\r\n    //      \r\n    function getMyAdv() public view returns (AdvInfo[] memory res){\r\n        AdvInfo[] memory a = _advs[msg.sender];\r\n        return a;\r\n    }\r\n\r\n    //    \r\n    function getAllAdv() public view returns (AdvInfo[] memory) {\r\n        return AllAdv;\r\n    }   \r\n\r\n    //    ?\r\n    function getAllperson() public view returns (uint256) {\r\n        return total_person;\r\n    }\r\n    \r\n    //     \r\n    function callReward(uint256 idx) public returns(string memory) {\r\n        AdvInfo memory a = AllAdv[idx];\r\n        uint256 _rwd = a.reward;\r\n        uint256 _pot = a.pot;\r\n        address payable addr = payable(msg.sender);\r\n\r\n        //      ?\r\n        if (_pot < _rwd) {\r\n            AllAdv[idx].flag = false; //   \r\n            revert(\"Expired advertising\"); //  Error , Gas \r\n        }\r\n\r\n        (bool sent, ) = addr.call{value: _rwd}(\"\");\r\n\r\n        require(sent, \"Fail to transfer reward\"); //   ?\r\n        AllAdv[idx].pot = _pot - _rwd;\r\n\r\n        emit IsCall(msg.sender, _rwd);\r\n\r\n        return \"Reward Completed\";\r\n    }\r\n}\r\n",
  "sourcePath": "C:\\dapp_v2\\react\\truffle\\contracts\\Advertising.sol",
  "compiler": {
    "name": "solc",
    "version": "0.8.14+commit.80d49f37.Emscripten.clang"
  },
  "schemaVersion": "3.4.7",
  "updatedAt": "2022-06-17T17:41:39.307Z",
  "networkType": "ethereum",
  "devdoc": {
    "kind": "dev",
    "methods": {},
    "version": 1
  },
  "userdoc": {
    "kind": "user",
    "methods": {},
    "version": 1
  }
}